:10000000FE2F00308A000408840A82070034483436
:0A00100065346C346C346F34003436
:100F060087270130A627862F83160313860105102F
:100F160007100130952738309527803095270C30FB
:100F260095270800F400740883120313860007103F
:100F3600D9270630F3003030F200F20BA02FF30B66
:100F4600A02F00000800F700F501F60175087707E5
:100F560084000120003A0319080075087707840009
:100F66000120BC270130F5070318F60A0030F60702
:100F7600A92FF400740883120313860007140630A1
:100F8600F3003030F200F20BC62FF30BC62F000031
:100F9600D9270630F3003030F200F20BD02FF30BD6
:100FA600D02F0000831203130710080083120313C7
:100FB60005100630F1003030F000F00BE02FF10B99
:100FC600E02F00008312031305140630F1003030C1
:100FD600F000F00BEC2FF10BEC2F00008312031343
:100FE60005100630F1003030F000F00BF82FF10B51
:0A0FF600F82F000008008301832F8C
:02400E007AFD39
:00000001FF
